{
  "contractName": "FastFiller",
  "abi": [
    {
      "constant": true,
      "inputs": [],
      "name": "loop_ripemd160_1",
      "outputs": [
        {
          "name": "",
          "type": "bytes20"
        }
      ],
      "payable": false,
      "stateMutability": "view",
      "type": "function"
    },
    {
      "constant": true,
      "inputs": [
        {
          "name": "_input",
          "type": "bytes"
        }
      ],
      "name": "loop_ripemd160_2",
      "outputs": [],
      "payable": false,
      "stateMutability": "view",
      "type": "function"
    }
  ],
  "bytecode": "0x608060405234801561001057600080fd5b5061024b806100206000396000f3fe608060405234801561001057600080fd5b50600436106100365760003560e01c806308f35d851461003b5780637cd68967146100b4575b600080fd5b6100b26004803603602081101561005157600080fd5b810190808035906020019064010000000081111561006e57600080fd5b82018360208201111561008057600080fd5b803590602001918460018302840111640100000000831117156100a257600080fd5b90919293919293905050506100f0565b005b6100bc610163565b60405180826bffffffffffffffffffffffff19166bffffffffffffffffffffffff1916815260200191505060405180910390f35b60005a905060006004600f85859050028161010757fe5b046103e80190505b8082111561015d5760038484604051808383808284378083019250505092505050602060405180830381855afa15801561014d573d6000803e3d6000fd5b50505060405151505a915061010f565b50505050565b6000606060405180602001604052806000815250905060005a90505b6103e8811115610211576003826040518082805190602001908083835b602083106101bf578051825260208201915060208101905060208303925061019c565b6001836020036101000a038019825116818451168082178552505050505050905001915050602060405180830381855afa158015610201573d6000803e3d6000fd5b50505060405151505a905061017f565b50509056fea265627a7a7230582001c03674790e60d0e4eff8e25d0c514d12cd2077bd7b67f4db9833f47b71a61964736f6c634300050a0032",
  "source": "pragma solidity ^0.5.10;\n\n\ncontract FastFiller {\n\n    function loop_ripemd160_1()\n        external\n        view\n        returns (bytes20)\n    {\n        bytes memory _input = \"\";\n        uint g = gasleft();\n        while(g > 1000) {\n            ripemd160(_input);\n            g = gasleft();\n        }\n    }\n\n    function loop_ripemd160_2(bytes calldata _input)\n        external\n        view\n    {\n        uint g = gasleft();\n        uint limit = 1000 + (_input.length * 15 / 4);\n        while(g > limit) {\n            ripemd160(_input);\n            g = gasleft();\n        }\n    }\n}\n",
  "sourcePath": "/home/aznagy/work/shenanigans/blockfill/contracts/FastFiller.sol",
  "compiler": {
    "name": "solc",
    "version": "0.5.10+commit.5a6ea5b1.Emscripten.clang"
  },
  "schemaVersion": "3.0.11",
  "updatedAt": "2019-07-26T13:19:40.593Z",
  "devdoc": {
    "methods": {}
  },
  "userdoc": {
    "methods": {}
  }
}